:100000000C945D000C9485000C9485000C94850084
:100010000C9485000C9485000C9485000C9485004C
:100020000C9485000C9485000C9485000C9485003C
:100030000C9485000C9485000C9485000C9485002C
:100040000C940C050C9485000C94DA040C94B40404
:100050000C9485000C9485000C9485000C9485000C
:100060000C9485000C94850000000008000201003B
:100070000003040700000000000000000000000072
:10008000250028002B0000000000240027002A0083
:10009000040404040404040402020202020203032E
:1000A0000303030301020408102040800102040836
:1000B0001020010204081020560511241FBECFEFA6
:1000C000D8E0DEBFCDBF12E0A0E0B1E0E4E6F6E1AB
:1000D00002C005900D92A038B107D9F724E0A0E83E
:1000E000B2E001C01D92AD34B207E1F710E0CDE5FA
:1000F000D0E004C02197FE010E945608CC35D107FC
:10010000C9F70E94B4050C94300B0C94000090E0E9
:10011000FC01EC55FF4F2491FC01E057FF4F849107
:10012000882399F090E0880F991FFC01EA57FF4F50
:10013000A591B491FC01E458FF4F859194918FB73C
:10014000F894EC91E22BEC938FBF0895CF92DF925D
:10015000EF92FF920F931F93CF93DF936C017A017D
:100160008B01C0E0D0E0CE15DF0589F0D8016D919C
:100170008D01D601ED91FC910190F081E02DC60139
:100180000995892B11F47E0102C02196ECCFC7019D
:10019000DF91CF911F910F91FF90EF90DF90CF9063
:1001A0000895FC01918D828D981761F0828DDF0199
:1001B000A80FB11D5D968C91928D9F5F9F73928F5A
:1001C00090E008958FEF9FEF0895FC01918D828D4F
:1001D000981731F0828DE80FF11D858D90E008951C
:1001E0008FEF9FEF0895FC01918D228D892F90E074
:1001F000805C9F4F821B91098F739927089589E82E
:1002000093E00E94F30021E0892B09F420E0822F83
:100210000895FC01848DDF01A80FB11DA35ABF4FC3
:100220002C91848D90E001968F739927848FA689F5
:10023000B7892C93A089B1898C9180648C93938D1C
:10024000848D981306C00288F389E02D80818F7D0C
:1002500080830895EF92FF920F931F93CF93DF93C4
:10026000EC0181E0888F9B8D8C8D981305C0E88907
:10027000F989808185FD24C0F62E0B8D10E00F5F7B
:100280001F4F0F731127E02E8C8DE8120CC00FB694
:1002900007FCFACFE889F989808185FFF5CFCE0187
:1002A0000E940901F1CF8B8DFE01E80FF11DE35A89
:1002B000FF4FF0820B8FEA89FB898081806207C043
:1002C000EE89FF896083E889F98980818064808371
:1002D00081E090E0DF91CF911F910F91FF90EF901F
:1002E0000895CF93DF93EC01888D8823C9F0EA89C4
:1002F000FB89808185FD05C0A889B9898C9186FD1F
:100300000FC00FB607FCF5CF808185FFF2CFA8891B
:10031000B9898C9185FFEDCFCE010E940901E7CF0D
:10032000DF91CF91089580E090E0892B29F00E9421
:10033000FF0081110C940000089590E0FC01E85941
:10034000FF4F3491FC01EC55FF4F2491FC01E05725
:10035000FF4FE491EE2309F43BC0332339F13330EE
:1003600091F038F43130A9F0323001F584B58F7D49
:1003700012C0373091F03830A1F03430B9F48091A8
:1003800080008F7D03C0809180008F7780938000F4
:100390000DC084B58F7784BD09C08091B0008F7780
:1003A00003C08091B0008F7D8093B000F0E0EE0F2D
:1003B000FF1FE458FF4FA591B4918FB7F894EC91CB
:1003C000611103C020952E2301C02E2B2C938FBFCB
:1003D0000895CF93DF93FC012281222391F0EC0159
:1003E00083810E9487008C810E9487008A818430EB
:1003F00041F48D810E9487008E81DF91CF910C9412
:100400008700DF91CF910895CF93DF93EC016130A6
:1004100089F050F06230E1F0633061F561E08B818A
:100420000E949D0160E019C061E08B810E949D01E6
:1004300060E005C060E08B810E949D0161E08C81DD
:100440000E949D0161E08D810E949D0160E00DC0D0
:1004500060E08B810E949D0161E08C810E949D0182
:1004600060E08D810E949D0161E08E81DF91CF91DE
:100470000C949D01DF91CF910895CF93DF93EC0110
:10048000613049F030F0623061F06330A1F460E037
:1004900009C060E001C061E08B810E949D0161E0C4
:1004A00005C061E08B810E949D0160E08C81DF913D
:1004B000CF910C949D01DF91CF9108951F93CF931D
:1004C000DF93EC0111E020E030E0A9016F8578892D
:1004D00089899A890E94210A18160CF010E0612F70
:1004E0008C810E949D0161E08B810E949D0160E0F2
:1004F0008B81DF91CF911F910C949D01CF93DF935E
:10050000EC0120E030E0A9016F85788989899A891A
:100510000E94210A18161CF4EBA1FCA102C0EDA157
:10052000FEA1DF91CF910994DC0112962C9121302C
:1005300069F028F0223089F02430B1F00895DC0110
:10054000ED91FC910280F381E02D0994DC01ED91A5
:10055000FC910480F581E02D0DC0DC01ED91FC9152
:100560000680F781E02D06C0DC01ED91FC9100844E
:10057000F185E02D0994009769F0FC0101900020BD
:10058000E9F73197AF01481B590BBC0189E893E0AB
:100590000C94A60080E090E00895CF93DF930E9432
:1005A000BB02EC0184E491E00E94BB028C0F9D1F12
:1005B000DF91CF9108950E94EE0A8F929F92AF92A1
:1005C000BF92CF92DF92EF92FF920F931F93CF9340
:1005D000DF93EC018B859C85AD85BE850F811885E9
:1005E00029853A85BC01CD01601B710B820B930BF1
:1005F00009F4D0C08AF00E9471099B01AC010E94ED
:100600005D082F89388D498D5A8D0E94260A0E94D7
:10061000990A6B017C011BC090958095709561953E
:100620007F4F8F4F9F4F0E9471099B01AC010E9429
:100630005D082F89388D498D5A8D0E94260A0E94A7
:10064000990A6B017C01F7FAF094F7F8F0948F8423
:100650009888A988BA88A5019401C701B6010E94AB
:10066000210A18160CF043C020E030E0A901C501B2
:10067000B4010E94C90881110BC06F89788D898DE2
:100680009A8D9B01AC010E945D080E94990A1BC0D3
:10069000A50194016F89788D898D9A8D0E94CE086D
:1006A0006B017C0120E030E0A9010E94210A1816AC
:1006B00024F0F7FAF094F7F8F094A7019601C50139
:1006C000B4010E945D087B018C01BB88CC88DD8869
:1006D000CE892B2D3C2D4D2D5C2F0E94210A181602
:1006E0000CF05DC03B2D7C2D8D2D9C2F5FC0A50196
:1006F0009401C701B6010E94C90887FF54C020E0D9
:1007000030E0A901C501B4010E94C908811111C0DE
:100710006F89788D898D9A8D9B01AC010E945D084F
:100720000E94990A6B017C01F7FAF094F7F8F094B3
:100730001DC0A50194016F89788D898D9A8D0E94C5
:10074000CE086B017C0120E030E0A9010E94210A63
:10075000181624F0F7FAF094F7F8F094A701960130
:10076000C501B4010E945C086B017C018B889C88E8
:10077000AD88BE88B7FAB094B7F8B094A5019401DB
:10078000C701B6010E94C90887FF0DC0382D792D19
:10079000C5010CC030E070E080E090E007C03E2D65
:1007A0007F2DC80103C03C2D7D2DC701C32ED72E40
:1007B0007C01C701B601DF91CF911F910F91FF908E
:1007C000EF90DF90CF90BF90AF909F908F90089563
:1007D000CF92DF92EF92FF9286E294E00E94DD02D8
:1007E0009B01AC0160933504709336048093370409
:1007F0009093380460E070E08AE794E40E94CE08A9
:100800006B017C0120E030E0A9010E94210A18164A
:100810001CF4C701B60103C0C701B60190580E947D
:100820004009609341047093420480934304909381
:100830004404FF90EF90DF90CF9008958F929F92A5
:10084000AF92BF92CF92DF92EF92FF92409131042C
:1008500050913204609133047091340480912D04DE
:1008600090912E04A0912F04B0913004481759079D
:100870006A077B0709F46FC08FB7F894C0908503AF
:10088000D0908603E0908703F09088038FBF40915B
:10089000410450914204609143047091440480915A
:1008A000450490914604A0914704B0914804840FF8
:1008B000951FA61FB71F8C159D05AE05BF0530F609
:1008C0008090350490903604A0903704B09038049E
:1008D00020E030E0A901C501B4010E94210A1816E8
:1008E00064F480912D0490912E04A0912F04B09176
:1008F00030040196A11DB11D14C020E030E0A90113
:10090000C501B4010E94C90887FF13C080912D045E
:1009100090912E04A0912F04B09130040197A10969
:10092000B10980932D0490932E04A0932F04B093CB
:10093000300460912D04637086E294E00E9494027A
:10094000C0924504D0924604E0924704F0924804D5
:100950000E94E8037BCFFF90EF90DF90CF90BF9095
:10096000AF909F908F9008951F920F920FB60F92A5
:1009700011242F933F934F935F936F937F938F93A4
:100980009F93AF93BF93EF93FF9389E893E00E9407
:100990000901FF91EF91BF91AF919F918F917F914D
:1009A0006F915F914F913F912F910F900FBE0F90DC
:1009B0001F9018951F920F920FB60F9211242F932C
:1009C0008F939F93EF93FF93E0919903F0919A0394
:1009D0008081E0919F03F091A00382FD12C090817D
:1009E0008091A2038F5F8F732091A303821751F030
:1009F000E091A203F0E0E757FC4F958F8093A203AC
:100A000001C08081FF91EF919F918F912F910F9065
:100A10000FBE0F901F9018951F920F920FB60F9256
:100A200011242F933F938F939F93AF93BF93809104
:100A3000850390918603A0918703B091880330913C
:100A4000840223E0230F2D3720F40196A11DB11D50
:100A500005C026E8230F0296A11DB11D2093840234
:100A60008093850390938603A0938703B0938803B4
:100A70008091800290918102A0918202B0918302C4
:100A80000196A11DB11D8093800290938102A093D5
:100A90008202B0938302BF91AF919F918F913F915A
:100AA0002F910F900FBE0F901F901895E9E8F3E07B
:100AB0001382128288EE93E0A0E0B0E084839583F5
:100AC000A683B78384E091E09183808385EC90E0F6
:100AD0009587848784EC90E09787868780EC90E008
:100AE000918B808B81EC90E0938B828B82EC90E0F9
:100AF000958B848B86EC90E0978B868B118E128E73
:100B0000138E148EE6E2F4E084E191E09183808319
:100B100084E08283178210861186128613861486DB
:100B2000158616861786108A118A128A40E050E0D0
:100B300060E87FE3438B548B658B768B478B508FBC
:100B4000618F728F138E148E158E168E178E10A2D3
:100B500011A212A292E09383848383E0858385E0CF
:100B60008683CF010C94E901CF93DF93CDB7DEB735
:100B70002A970FB6F894DEBF0FBECDBF789484B528
:100B8000826084BD84B5816084BD85B5826085BD89
:100B900085B5816085BD80916E00816080936E0017
:100BA0001092810080918100826080938100809109
:100BB00081008160809381008091800081608093BA
:100BC00080008091B10084608093B1008091B0007A
:100BD00081608093B00080917A00846080937A0075
:100BE00080917A00826080937A0080917A0081609F
:100BF00080937A0080917A00806880937A001092C6
:100C0000C10080E090E0AAEFB3E4809339049093B0
:100C10003A04A0933B04B0933C040E94E80380E0B4
:100C200090E0A8E4B3E480933D0490933E04A09345
:100C30003F04B09340040E94E80380E090E0A8ECF9
:100C4000B3E48093350490933604A0933704B093B3
:100C5000380482E090E0A0E0B0E0809341049093FB
:100C60004204A0934304B0934404109231041092C0
:100C7000320410923304109234040E94E8030E945C
:100C80001E04E0919903F0919A0382E08083E09141
:100C90009503F09196031082E0919703F0919803E9
:100CA00080E180831092A103E0919D03F0919E0367
:100CB00086E08083E0919B03F0919C0380818061BA
:100CC0008083E0919B03F0919C0380818860808306
:100CD000E0919B03F0919C03808180688083E09188
:100CE0009B03F0919C0380818F7D80838FE00E9425
:100CF000870080E10E94870081E10E9487008DE0EB
:100D00000E94870060E08FE00E949D0160E080E12A
:100D10000E949D0160E081E10E949D0160E08DE004
:100D20000E949D0180E291E00E94BB0289E893E06D
:100D30000E94710105E812E058E6C52EDD24D39427
:100D4000E12CF12C89E893E00E94F300892B09F44F
:100D500065C1B09084038B2C912C89E893E00E94AC
:100D6000D100F401EB57FD4F8083883129F480E2F4
:100D700091E00E94BB024CC18D3019F08A3009F01D
:100D80004AC111826DE371E085E892E00E94F30AA6
:100D9000892B81F060E471E085E892E00E94F30A1B
:100DA000892B41F063E471E085E892E00E94F30A48
:100DB000892BA9F587E491E00E94CD028AE591E0B4
:100DC0000E94CD0281E791E00E94CD0288E891E087
:100DD0000E94CD028DE991E00E94CD0286EB91E068
:100DE0000E94CD028EEC91E00E94CD028CEE91E04B
:100DF0000E94CD0282E092E00E94CD0287E192E063
:100E00000E94CD0287E292E00E94CD0285E392E04B
:100E10000E94CD0288E492E00E94CD0235C043E0FA
:100E200050E06AE572E085E892E00E94FC0A892BB6
:100E300049F410922D0410922E0410922F04109257
:100E4000300422C042E050E06EE572E085E892E0B6
:100E50000E94FC0A892BC1F042E050E061E672E09A
:100E600085E892E00E94FC0A892B71F043E050E093
:100E700064E672E085E892E00E94FC0A892B49F45E
:100E800086E294E00E94E90187E592E00E94CD02AB
:100E9000BFC043E050E068E672E085E892E00E945F
:100EA000FC0A892BD9F480912804882369F360E037
:100EB000809129040E949D0160E080912A040E9493
:100EC0009D01809128048430F9F660E080912B0424
:100ED0000E949D0160E080912C0423C043E050E01B
:100EE0006CE672E085E892E00E94FC0A892B61F2D0
:100EF00044E050E060E772E085E892E00E94FC0A7E
:100F0000892B91F480918902813321F460E08FE094
:100F10000E949D0180918902823309F0B5CF60E083
:100F20008DE00E949D01B0CF44E050E065E772E0A3
:100F300085E892E00E94FC0A892B79F4809189026D
:100F4000813321F461E08FE00E949D01809189024C
:100F5000823309F099CF61E0E3CF42E050E06AE7E5
:100F600072E085E892E00E94FC0A892B09F045C0F6
:100F700080918702883509F087CFA8E8B2E0CE01DA
:100F80000196F80101900020E9F73197E558F24009
:100F90009D01255832402E173F0728F42D91FC0162
:100FA0002193CF01EECFCE0101960E940A0B092EAC
:100FB000000CAA0BBB0BBC01CD0129E0660F771F0B
:100FC000881F991F2A95D1F7A70196010E9415083D
:100FD000220F331F220F331FC901330FAA0BBB0B84
:100FE0008093310490933204A0933304B09334047B
:100FF0000E94E8030E941E0447CF42E050E06DE7E4
:1010000072E085E892E00E94FC0A892B09F43CCF4B
:101010001092840303C0B394B092840389E893E0F0
:101020000E9471010E9493018DCE052E97FB1EF444
:1010300000940E942C0857FD07D00E94340807FC3A
:1010400003D04EF40C942C08509540953095219582
:101050003F4F4F4F5F4F08959095809570956195E4
:101060007F4F8F4F9F4F0895A1E21A2EAA1BBB1BE3
:10107000FD010DC0AA1FBB1FEE1FFF1FA217B30764
:10108000E407F50720F0A21BB30BE40BF50B661F7A
:10109000771F881F991F1A9469F76095709580953E
:1010A00090959B01AC01BD01CF010895EE0FFF1F8C
:1010B0000590F491E02D09945058BB27AA270E946F
:1010C00074080C94E7090E94D90938F00E94E009DD
:1010D00020F039F49F3F19F426F40C94D6090EF44D
:1010E000E095E7FB0C94D009E92F0E94F80958F32A
:1010F000BA17620773078407950720F079F4A6F5FD
:101100000C941A0A0EF4E0950B2EBA2FA02D0B01A9
:10111000B90190010C01CA01A0011124FF27591B3C
:1011200099F0593F50F4503E68F11A16F040A22F42
:10113000232F342F4427585FF3CF469537952795B3
:10114000A795F0405395C9F77EF41F16BA0B620BB2
:10115000730B840BBAF09150A1F0FF0FBB1F661FF9
:10116000771F881FC2F70EC0BA0F621F731F841F3C
:1011700048F4879577956795B795F7959E3F08F062
:10118000B0CF9395880F08F09927EE0F9795879524
:1011900008950E94AC0908F481E008950E94E208D5
:1011A0000C94E7090E94E00958F00E94D90940F028
:1011B00029F45F3F29F00C94D00951110C941B0ABB
:1011C0000C94D6090E94F80968F39923B1F35523CA
:1011D00091F3951B550BBB27AA276217730784074A
:1011E00038F09F5F5F4F220F331F441FAA1FA9F3E0
:1011F00035D00E2E3AF0E0E832D091505040E695CE
:10120000001CCAF72BD0FE2F29D0660F771F881F2E
:10121000BB1F261737074807AB07B0E809F0BB0B21
:10122000802DBF01FF2793585F4F3AF09E3F510535
:1012300078F00C94D0090C941B0A5F3FE4F3983EBD
:10124000D4F3869577956795B795F7959F5FC9F71E
:10125000880F911D9695879597F90895E1E0660F9F
:10126000771F881FBB1F621773078407BA0720F018
:10127000621B730B840BBA0BEE1F88F7E095089581
:101280000E94000A88F09F5798F0B92F9927B7510C
:10129000B0F0E1F0660F771F881F991F1AF0BA951A
:1012A000C9F714C0B13091F00E941A0AB1E0089554
:1012B0000C941A0A672F782F8827B85F39F0B93F46
:1012C000CCF3869577956795B395D9F73EF49095CD
:1012D0008095709561957F4F8F4F9F4F0895E8944B
:1012E00009C097FB3EF490958095709561957F4F6E
:1012F0008F4F9F4F9923A9F0F92F96E9BB2793951C
:10130000F695879577956795B795F111F8CFFAF42B
:10131000BB0F11F460FF1BC06F5F7F4F8F4F9F4F5C
:1013200016C0882311F096E911C0772321F09EE8BA
:10133000872F762F05C0662371F096E8862F70E020
:1013400060E02AF09A95660F771F881FDAF7880FFA
:101350009695879597F90895990F0008550FAA0B50
:10136000E0E8FEEF16161706E807F907C0F01216B8
:101370001306E407F50798F0621B730B840B950BBB
:1013800039F40A2661F0232B242B252B21F4089510
:101390000A2609F4A140A6958FEF811D811D0895AD
:1013A00097F99F6780E870E060E008959FEF80EC18
:1013B000089500240A9416161706180609060895BB
:1013C00000240A9412161306140605060895092E21
:1013D0000394000C11F4882352F0BB0F40F4BF2B90
:1013E00011F460FF04C06F5F7F4F8F4F9F4F0895D0
:1013F00057FD9058440F551F59F05F3F71F04795C6
:10140000880F97FB991F61F09F3F79F087950895AA
:10141000121613061406551FF2CF4695F1DF08C0C9
:10142000161617061806991FF1CF869571056105E6
:1014300008940895E894BB2766277727CB0197F98E
:1014400008950E94AC0908F48FEF08950E94390AAC
:101450000C94E7090E94D90938F00E94E00920F0B5
:10146000952311F00C94D0090C94D60911240C94F6
:101470001B0A0E94F80970F3959FC1F3950F50E085
:10148000551F629FF001729FBB27F00DB11D639F36
:10149000AA27F00DB11DAA1F649F6627B00DA11DDC
:1014A000661F829F2227B00DA11D621F739FB00D82
:1014B000A11D621F839FA00D611D221F749F3327F2
:1014C000A00D611D231F849F600D211D822F762F8B
:1014D0006A2F11249F5750409AF0F1F088234AF068
:1014E000EE0FFF1FBB1F661F771F881F91505040D4
:1014F000A9F79E3F510580F00C94D0090C941B0A6B
:101500005F3FE4F3983ED4F3869577956795B7955A
:10151000F795E7959F5FC1F7FE2B880F911D969574
:10152000879597F9089519F416F40C94D6090C943C
:10153000D90A0E94000AB8F39923C9F3B6F39F575A
:10154000550B87FF0E94E70A0024A0E640EA9001BD
:1015500080585695979528F4805C660F771F881FF2
:1015600020F026173707480730F4621B730B840BF3
:10157000202931294A2BA695179407942025312537
:101580004A2758F7660F771F881F20F0261737075E
:10159000480730F4620B730B840B200D311D411D85
:1015A000A09581F7B901842F9158880F969587955A
:1015B00008959F3F31F0915020F487957795679576
:1015C000B795880F911D9695879597F90895915035
:1015D0005040660F771F881FD2F7089581E090E092
:1015E000F8940C94300BFB01DC018D910190801973
:1015F0000110D9F3990B0895FB01DC0141505040D3
:1016000030F08D910190801919F40020B9F7881BF2
:10161000990B0895FC0188279927E894219120329D
:10162000E9F3293010F02E30C8F32B3241F02D327F
:1016300039F4689404C00E94280B820F911D2191F7
:1016400020532A30C0F31EF4909581959F4F089542
:101650007AE0979F902D879F802D910D11240895FA
:04166000F894FFCF2C
:10166400000000002A01A600F300D100E50071018A
:101674000000000094027E025E023D020402DD02CC
:101684000D0A486F72757320302E32205B27242791
:1016940020666F722068656C705D0D0A00240D0071
:1016A400240A00240D0A0024242028766965772062
:1016B40073657474696E677329002423202876691E
:1016C4006577202320706172616D6574657273297A
:1016D40000244720287669657720706172736572EB
:1016E400207374617465290024492028766965771C
:1016F400206275696C6420696E666F2900244E202F
:101704002876696577207374617274757020626CD1
:101714006F636B73290024783D76616C75652028AE
:10172400736176652073657474696E672900244E4D
:10173400783D6C696E6520287361766520737461E9
:101744007274757020626C6F636B290024432028C7
:10175400636865636B2067636F6465206D6F6465A0
:101764002900245820286B696C6C20616C61726DAF
:10177400206C6F636B29007E20286379636C65207D
:101784007374617274290021202866656564206879
:101794006F6C6429003F202863757272656E742033
:1017A40073746174757329006374726C2D782028C6
:1017B400726573657429006F6B00473530004D30D6
:1017C400004D32004D3137004D3138004D35300079
:1017D4004D373054004D3731540047310024310027
:107800000C94343C0C94513C0C94513C0C94513CE1
:107810000C94513C0C94513C0C94513C0C94513CB4
:107820000C94513C0C94513C0C94513C0C94513CA4
:107830000C94513C0C94513C0C94513C0C94513C94
:107840000C94513C0C94513C0C94513C0C94513C84
:107850000C94513C0C94513C0C94513C0C94513C74
:107860000C94513C0C94513C11241FBECFEFD8E036
:10787000DEBFCDBF11E0A0E0B1E0ECE9FFE702C060
:1078800005900D92A230B107D9F712E0A2E0B1E065
:1078900001C01D92AD30B107E1F70E942D3D0C945F
:1078A000CC3F0C94003C982F959595959595959582
:1078B000905D8F708A307CF0282F295A8091C0000B
:1078C00085FFFCCF9093C6008091C00085FFFCCF60
:1078D0002093C6000895282F205DF0CF982F809127
:1078E000C00085FFFCCF9093C6000895EF92FF92F1
:1078F0000F931F93EE24FF2487018091C00087FD22
:1079000017C00894E11CF11C011D111D81E4E8164B
:1079100082E4F8068FE0080780E0180770F3E09132
:107920000401F091050109958091C00087FFE9CF1E
:107930008091C6001F910F91FF90EF9008950E94D3
:10794000763C982F8091C00085FFFCCF9093C600B5
:1079500091362CF490330CF09053892F089597555D
:10796000892F08951F930E949F3C182F0E949F3CCF
:107970001295107F810F1F9108951F93182F882350
:1079800021F00E94763C1150E1F71F9108951F935A
:10799000182F0E94763C803249F0809103018F5F5E
:1079A000809303018530C1F01F9108958091C0003C
:1079B00085FFFCCF84E18093C6008091C00085FFE5
:1079C000FCCF1093C6008091C00085FFFCCF80E102
:1079D0008093C6001F910895E0910401F091050184
:1079E00009951F9108950E94763C803241F0809164
:1079F00003018F5F80930301853081F008958091AA
:107A0000C00085FFFCCF84E18093C6008091C00058
:107A100085FFFCCF80E18093C6000895E0910401CA
:107A2000F09105010995089540E951E08823A1F0FE
:107A30002D9A28EE33E0FA013197F1F721503040CA
:107A4000D1F72D9828EE33E0FA013197F1F7215064
:107A50003040D1F7815061F708953F924F925F9285
:107A60006F927F928F929F92AF92BF92CF92DF924E
:107A7000EF92FF920F931F93CF93DF93000080E16B
:107A80008093C4001092C50088E18093C10086E015
:107A90008093C2005098589A259A81E00E94143D24
:107AA00024E1F22E9EE1E92E85E9D82E0FE0C02ECA
:107AB00010E1B12EAA24A394B1E49B2EA6E58A2E50
:107AC000F2E57F2EE0E26E2E79E4572E63E5462E36
:107AD00050E5352E0E94763C8033B1F18133B9F107
:107AE000803409F46FC0813409F476C0823409F41B
:107AF00085C0853409F488C0803531F1823521F1A3
:107B0000813511F1853509F485C0863509F48DC0BC
:107B1000843609F496C0843709F403C1853709F423
:107B200072C1863709F466C0809103018F5F80932C
:107B30000301853079F6E0910401F0910501099582
:107B40000E94763C803351F60E94F33CC3CF0E94E2
:107B5000763C803249F78091C00085FFFCCFF092DF
:107B6000C6008091C00085FFFCCF9092C600809136
:107B7000C00085FFFCCF8092C6008091C00085FFC9
:107B8000FCCF7092C6008091C00085FFFCCF609250
:107B9000C6008091C00085FFFCCF5092C600809146
:107BA000C00085FFFCCF4092C6008091C00085FFD9
:107BB000FCCF3092C6008091C00085FFFCCFB09210
:107BC000C60088CF0E94763C863808F4BDCF0E945C
:107BD000763C0E94F33C7ECF0E94763C803809F4CC
:107BE0009CC0813809F40BC1823809F43CC1883942
:107BF00009F48FC080E00E94C73C6CCF84E10E94F2
:107C0000BD3C0E94F33C66CF85E00E94BD3C0E94D3
:107C1000F33C60CF0E94763C809306010E94763C44
:107C2000809307010E94F33C55CF0E94763C80333D
:107C300009F41DC183E00E94BD3C80E00E94C73C66
:107C400049CF0E94763C809309020E94763C809343
:107C5000080280910C028E7F80930C020E94763C79
:107C6000853409F415C18091080290910902892B8D
:107C700089F000E010E00E94763CF801E85FFE4FDA
:107C800080830F5F1F4F80910802909109020817AF
:107C9000190788F30E94763C803209F045CF809125
:107CA0000C0280FF01C16091060170910701660F0F
:107CB000771F7093070160930601A0910802B091AD
:107CC00009021097C9F0E8E0F1E09B01AD014E0F09
:107CD0005F1FF999FECF32BD21BD819180BDFA9A17
:107CE000F99A2F5F3F4FE417F50799F76A0F7B1F4B
:107CF00070930701609306018091C00085FFFCCF5F
:107D0000F092C6008091C00085FFFCCFB092C60003
:107D1000E1CE83E00E94C73CDDCE82E00E94C73CFA
:107D2000D9CE0E94763C809309020E94763C8093D3
:107D300008028091060190910701880F991F909386
:107D40000701809306010E94763C853409F4A6C0A1
:107D500080910C028E7F80930C020E94763C8032D0
:107D600009F0B8CE8091C00085FFFCCFF092C6002C
:107D7000609108027091090261157105B9F140E046
:107D800050E080910C02A82FA170B82FB27011C0E2
:107D9000BB2309F45CC0E0910601F0910701319624
:107DA000F0930701E09306014F5F5F4F46175707B7
:107DB000E8F4AA2369F3F999FECF209106013091E6
:107DC000070132BD21BDF89A90B58091C00085FFB2
:107DD000FCCF9093C6002F5F3F4F30930701209355
:107DE00006014F5F5F4F4617570718F38091C00099
:107DF00085FDE5CE8091C00085FFF8CFE0CE81E023
:107E00000E94C73C67CE0E94763C803209F08CCE3F
:107E10008091C00085FFFCCFF092C6008091C00029
:107E200085FFFCCFE092C6008091C00085FFFCCFAB
:107E3000D092C6008091C00085FFFCCFC092C600E2
:107E40008091C00085FFFCCFB092C60043CEE09188
:107E50000601F091070194918091C00085FFFCCF4D
:107E60009093C6009CCF80E10E94C73C33CE0E9415
:107E7000763C0E94763C182F0E94763C112309F430
:107E800083C0113009F484C08FE00E94C73C22CE29
:107E900080910C02816080930C02E5CE80910C02EF
:107EA000816080930C0259CF809107018823880F4D
:107EB000880B8A2180930B02809106019091070123
:107EC000880F991F90930701809306018091080203
:107ED00080FF09C080910802909109020196909359
:107EE000090280930802F894F999FECF1127E091D6
:107EF0000601F0910701C8E0D1E08091080290915D
:107F00000902103091F40091570001700130D9F34B
:107F100003E000935700E89500915700017001308D
:107F2000D9F301E100935700E89509901990009169
:107F3000570001700130D9F301E000935700E89534
:107F40001395103498F011270091570001700130FB
:107F5000D9F305E000935700E895009157000170B0
:107F60000130D9F301E100935700E895329602976A
:107F700009F0C7CF103011F00296E5CF112480919F
:107F8000C00085FFB9CEBCCE8EE10E94C73CA2CD19
:0C7F900085E90E94C73C9ECDF894FFCF0D
:027F9C00800063
:040000030000780081
:00000001FF
